{
  "contractName": "Event",
  "abi": [
    {
      "constant": true,
      "inputs": [],
      "name": "eventId",
      "outputs": [
        {
          "internalType": "uint256",
          "name": "",
          "type": "uint256"
        }
      ],
      "payable": false,
      "stateMutability": "view",
      "type": "function"
    },
    {
      "constant": true,
      "inputs": [
        {
          "internalType": "uint256",
          "name": "",
          "type": "uint256"
        }
      ],
      "name": "eventIds",
      "outputs": [
        {
          "internalType": "uint256",
          "name": "",
          "type": "uint256"
        }
      ],
      "payable": false,
      "stateMutability": "view",
      "type": "function"
    },
    {
      "constant": false,
      "inputs": [
        {
          "internalType": "string",
          "name": "event_name",
          "type": "string"
        },
        {
          "internalType": "uint256",
          "name": "event_date",
          "type": "uint256"
        },
        {
          "internalType": "string",
          "name": "event_description",
          "type": "string"
        },
        {
          "internalType": "string",
          "name": "event_section",
          "type": "string"
        },
        {
          "internalType": "uint256",
          "name": "event_section_amount",
          "type": "uint256"
        },
        {
          "internalType": "uint256",
          "name": "event_section_price",
          "type": "uint256"
        }
      ],
      "name": "createEvent",
      "outputs": [],
      "payable": false,
      "stateMutability": "nonpayable",
      "type": "function"
    },
    {
      "constant": true,
      "inputs": [
        {
          "internalType": "uint256",
          "name": "id",
          "type": "uint256"
        }
      ],
      "name": "getEvent",
      "outputs": [
        {
          "internalType": "string",
          "name": "",
          "type": "string"
        },
        {
          "internalType": "uint256",
          "name": "",
          "type": "uint256"
        },
        {
          "internalType": "string",
          "name": "",
          "type": "string"
        },
        {
          "internalType": "string",
          "name": "",
          "type": "string"
        },
        {
          "internalType": "uint256",
          "name": "",
          "type": "uint256"
        },
        {
          "internalType": "uint256",
          "name": "",
          "type": "uint256"
        }
      ],
      "payable": false,
      "stateMutability": "view",
      "type": "function"
    },
    {
      "constant": true,
      "inputs": [],
      "name": "getMyEvents",
      "outputs": [
        {
          "components": [
            {
              "internalType": "string",
              "name": "event_name",
              "type": "string"
            },
            {
              "internalType": "uint256",
              "name": "event_date",
              "type": "uint256"
            },
            {
              "internalType": "string",
              "name": "event_description",
              "type": "string"
            },
            {
              "internalType": "string",
              "name": "event_section",
              "type": "string"
            },
            {
              "internalType": "uint256",
              "name": "event_section_amount",
              "type": "uint256"
            },
            {
              "internalType": "uint256",
              "name": "event_section_price",
              "type": "uint256"
            }
          ],
          "internalType": "struct Event.eventInfo[]",
          "name": "",
          "type": "tuple[]"
        }
      ],
      "payable": false,
      "stateMutability": "view",
      "type": "function"
    },
    {
      "constant": true,
      "inputs": [
        {
          "internalType": "uint256",
          "name": "id",
          "type": "uint256"
        }
      ],
      "name": "getEventTickets",
      "outputs": [
        {
          "internalType": "contract TicketResale",
          "name": "",
          "type": "address"
        }
      ],
      "payable": false,
      "stateMutability": "view",
      "type": "function"
    }
  ],
  "bytecode": "0x608060405234801561001057600080fd5b50611ecc806100206000396000f3fe608060405234801561001057600080fd5b50600436106100625760003560e01c8063089cdd0c146100675780633548124b146100855780636d1884e01461009a578063998f6ac0146100bf578063acb98bf5146100d2578063ca261ce1146100e7575b600080fd5b61006f610107565b60405161007c9190610bcf565b60405180910390f35b61008d61010d565b60405161007c9190610b43565b6100ad6100a83660046109b4565b61035b565b60405161007c96959493929190610b62565b61006f6100cd3660046109b4565b610565565b6100e56100e03660046108e6565b610583565b005b6100fa6100f53660046109b4565b61074c565b60405161007c9190610b54565b60005481565b336000908152600260209081526040808320805482518185028101850190935280835260609492939192909184015b828210156103515760008481526020908190206040805160068602909201805460026001821615610100026000190190911604601f8101859004909402830160e090810190925260c08301848152929390928492909184918401828280156101e55780601f106101ba576101008083540402835291602001916101e5565b820191906000526020600020905b8154815290600101906020018083116101c857829003601f168201915b5050505050815260200160018201548152602001600282018054600181600116156101000203166002900480601f0160208091040260200160405190810160405280929190818152602001828054600181600116156101000203166002900480156102915780601f1061026657610100808354040283529160200191610291565b820191906000526020600020905b81548152906001019060200180831161027457829003601f168201915b505050918352505060038201805460408051602060026001851615610100026000190190941693909304601f81018490048402820184019092528181529382019392918301828280156103255780601f106102fa57610100808354040283529160200191610325565b820191906000526020600020905b81548152906001019060200180831161030857829003601f168201915b50505050508152602001600482015481526020016005820154815250508152602001906001019061013c565b5050505090505b90565b606060006060806000806000600360008981526020019081526020016000209050806000018160010154826002018360030184600401548560050154858054600181600116156101000203166002900480601f01602080910402602001604051908101604052809291908181526020018280546001816001161561010002031660029004801561042c5780601f106104015761010080835404028352916020019161042c565b820191906000526020600020905b81548152906001019060200180831161040f57829003601f168201915b5050875460408051602060026001851615610100026000190190941693909304601f8101849004840282018401909252818152959b50899450925084019050828280156104ba5780601f1061048f576101008083540402835291602001916104ba565b820191906000526020600020905b81548152906001019060200180831161049d57829003601f168201915b5050865460408051602060026001851615610100026000190190941693909304601f8101849004840282018401909252818152959950889450925084019050828280156105485780601f1061051d57610100808354040283529160200191610548565b820191906000526020600020905b81548152906001019060200180831161052b57829003601f168201915b505050505092509650965096509650965096505091939550919395565b6004818154811061057257fe5b600091825260209091200154905081565b600080546001018082558152600360209081526040909120875190916105ad9183918a0190610767565b506001810186905584516105ca9060028301906020880190610767565b5083516105e09060038301906020870190610767565b5060048181018490556005820183905560008054825460018082019094557f8a35acfbc15ff81a39ae7d344fd709f28e8600b4aa8c65c6b64bfe7fe36bd19b0155338152600260208181526040832080548086018083559185529190932085549394869460069093029091019261066a9284928692908216156101000260001901909116046107e5565b50600182015481600101556002820181600201908054600181600116156101000203166002900461069c9291906107e5565b50600382018160030190805460018160011615610100020316600290046106c49291906107e5565b506004820154816004015560058201548160050155505050853383856040516106ec9061085a565b6106f99493929190610bdd565b604051809103906000f080158015610715573d6000803e3d6000fd5b5060008054815260016020526040902080546001600160a01b0319166001600160a01b039290921691909117905550505050505050565b6000908152600160205260409020546001600160a01b031690565b828054600181600116156101000203166002900490600052602060002090601f016020900481019282601f106107a857805160ff19168380011785556107d5565b828001600101855582156107d5579182015b828111156107d55782518255916020019190600101906107ba565b506107e1929150610867565b5090565b828054600181600116156101000203166002900490600052602060002090601f016020900481019282601f1061081e57805485556107d5565b828001600101855582156107d557600052602060002091601f016020900482015b828111156107d557825482559160010191906001019061083f565b61118b80610cff83390190565b61035891905b808211156107e1576000815560010161086d565b600082601f83011261089257600080fd5b81356108a56108a082610c42565b610c1b565b915080825260208301602083018583830111156108c157600080fd5b6108cc838284610ca1565b50505092915050565b80356108e081610ce7565b92915050565b60008060008060008060c087890312156108ff57600080fd5b863567ffffffffffffffff81111561091657600080fd5b61092289828a01610881565b965050602061093389828a016108d5565b955050604087013567ffffffffffffffff81111561095057600080fd5b61095c89828a01610881565b945050606087013567ffffffffffffffff81111561097957600080fd5b61098589828a01610881565b935050608061099689828a016108d5565b92505060a06109a789828a016108d5565b9150509295509295509295565b6000602082840312156109c657600080fd5b60006109d284846108d5565b949350505050565b60006109e68383610aab565b9392505050565b6109f681610c89565b82525050565b6000610a0782610c70565b610a118185610c74565b935083602082028501610a2385610c6a565b8060005b85811015610a5d5784840389528151610a4085826109da565b9450610a4b83610c6a565b60209a909a0199925050600101610a27565b5091979650505050505050565b6109f681610c90565b6000610a7e82610c70565b610a888185610c74565b9350610a98818560208601610cad565b610aa181610cdd565b9093019392505050565b805160c080845260009190840190610ac38282610a73565b9150506020830151610ad86020860182610b3a565b5060408301518482036040860152610af08282610a73565b91505060608301518482036060860152610b0a8282610a73565b9150506080830151610b1f6080860182610b3a565b5060a0830151610b3260a0860182610b3a565b509392505050565b6109f681610358565b602080825281016109e681846109fc565b602081016108e08284610a6a565b60c08082528101610b738189610a73565b9050610b826020830188610b3a565b8181036040830152610b948187610a73565b90508181036060830152610ba88186610a73565b9050610bb76080830185610b3a565b610bc460a0830184610b3a565b979650505050505050565b602081016108e08284610b3a565b60808101610beb8287610b3a565b610bf860208301866109ed565b610c056040830185610b3a565b610c126060830184610b3a565b95945050505050565b60405181810167ffffffffffffffff81118282101715610c3a57600080fd5b604052919050565b600067ffffffffffffffff821115610c5957600080fd5b506020601f91909101601f19160190565b60200190565b5190565b90815260200190565b6001600160a01b031690565b60006108e0825b60006108e08260006108e082610c7d565b82818337506000910152565b60005b83811015610cc8578181015183820152602001610cb0565b83811115610cd7576000848401525b50505050565b601f01601f191690565b610cf081610358565b8114610cfb57600080fd5b5056fe60806040526010600755662386f26fc100006008556000600d5534801561002557600080fd5b5060405161118b38038061118b8339818101604052608081101561004857600080fd5b5080516020820151604080840151606090940151600080546001600160a01b031916331780825592519495939491926001600160a01b0316917f8be0079c531659141344cd1fd0a4f28419497f9722a3daafe3b4186f6b6457e0908290a36001818155670de0b6b3a76400008302600555600280546001600160a01b0319166001600160a01b0386161790554260035560048590556006805460ff1916828002179055505050505061108c806100ff6000396000f3fe60806040526004361061012a5760003560e01c8063715018a6116100ab578063a035b1fe1161006f578063a035b1fe146104ba578063b9b994d7146104cf578063bd75f871146104e4578063c486456c1461058c578063ddba10e6146105c5578063f2fde38b146106775761012a565b8063715018a6146103685780638da5cb5b1461037d5780638f32d59b146103925780639064e83b146103a7578063925d90701461040c5761012a565b806350b44712116100f257806350b4471214610286578063517679c2146102b05780636352211e146102da57806369c1d4a91461032057806370a08231146103355761012a565b8063095ea7b31461012f57806323b872dd1461015d5780632e5c0fe7146101935780633111faac146101ba5780633cfa7e0114610271575b600080fd5b61015b6004803603604081101561014557600080fd5b506001600160a01b0381351690602001356106aa565b005b61015b6004803603606081101561017357600080fd5b506001600160a01b03813581169160208101359091169060400135610729565b34801561019f57600080fd5b506101a8610739565b60408051918252519081900360200190f35b61025d600480360360208110156101d057600080fd5b8101906020810181356401000000008111156101eb57600080fd5b8201836020820111156101fd57600080fd5b8035906020019184602083028401116401000000008311171561021f57600080fd5b91908080602002602001604051908101604052809392919081815260200183836020028082843760009201919091525092955061073f945050505050565b604080519115158252519081900360200190f35b34801561027d57600080fd5b506101a8610886565b34801561029257600080fd5b506101a8600480360360208110156102a957600080fd5b503561088c565b3480156102bc57600080fd5b506101a8600480360360208110156102d357600080fd5b50356108aa565b3480156102e657600080fd5b50610304600480360360208110156102fd57600080fd5b50356108bc565b604080516001600160a01b039092168252519081900360200190f35b34801561032c57600080fd5b5061025d6108d7565b34801561034157600080fd5b506101a86004803603602081101561035857600080fd5b50356001600160a01b0316610958565b34801561037457600080fd5b5061015b610973565b34801561038957600080fd5b506103046109ce565b34801561039e57600080fd5b5061025d6109dd565b3480156103b357600080fd5b506103bc6109ee565b60408051602080825283518183015283519192839290830191858101910280838360005b838110156103f85781810151838201526020016103e0565b505050509050019250505060405180910390f35b34801561041857600080fd5b50610421610aa0565b604051808060200180602001838103835285818151815260200191508051906020019060200280838360005b8381101561046557818101518382015260200161044d565b50505050905001838103825284818151815260200191508051906020019060200280838360005b838110156104a457818101518382015260200161048c565b5050505090500194505050505060405180910390f35b3480156104c657600080fd5b506101a8610ac4565b3480156104db57600080fd5b506101a8610aca565b61015b600480360360408110156104fa57600080fd5b81019060208101813564010000000081111561051557600080fd5b82018360208201111561052757600080fd5b8035906020019184600183028401116401000000008311171561054957600080fd5b91908080601f0160208091040260200160405190810160405280939291908181526020018383808284376000920191909152509295505091359250610ad0915050565b34801561059857600080fd5b506105a1610c46565b604051808260018111156105b157fe5b60ff16815260200191505060405180910390f35b3480156105d157600080fd5b5061025d600480360360408110156105e857600080fd5b81019060208101813564010000000081111561060357600080fd5b82018360208201111561061557600080fd5b8035906020019184602083028401116401000000008311171561063757600080fd5b9190808060200260200160405190810160405280939291908181526020018383602002808284376000920191909152509295505091359250610c4f915050565b34801561068357600080fd5b5061015b6004803603602081101561069a57600080fd5b50356001600160a01b0316610d39565b6000818152600a602052604090205481906001600160a01b031633146106cf57600080fd5b6000828152600c602052604080822080546001600160a01b0319166001600160a01b0387169081179091559051849233917f8c5be1e5ebec7d5bd14f71427d1e84f3dd0314c0f7b2291e5b200ac8c7c3b9259190a4505050565b610734838383610d56565b505050565b60035481565b600080805b835181101561078557600e600085838151811061075d57fe5b6020026020010151815260200190815260200160002054820191508080600101915050610744565b508034146107da576040805162461bcd60e51b815260206004820152601c60248201527f596f7520646f206e6f74206861766520656e6f75676820657468657200000000604482015290519081900360640190fd5b60005b835181101561087c5761083d600a60008684815181106107f957fe5b6020026020010151815260200190815260200160002060009054906101000a90046001600160a01b03163386848151811061083057fe5b6020026020010151610729565b600e600085838151811061084d57fe5b6020908102919091018101518252810191909152604001600090812055600d80546000190190556001016107dd565b5060019392505050565b60015481565b6009818154811061089957fe5b600091825260209091200154905081565b600e6020526000908152604090205481565b6000908152600a60205260409020546001600160a01b031690565b60006004544211156108e857600080fd5b6006805460ff1916905542600481905560408051602081019290925280825260118282015270105d58dd1a5bdb8810d85b98d95b1b1959607a1b6060830152517f06b08932edfa95ecf10e18f8e389c58332551bbfe5faf843ed9afb329fd141189181900360800190a150600190565b6001600160a01b03166000908152600b602052604090205490565b61097b6109dd565b61098457600080fd5b600080546040516001600160a01b03909116907f8be0079c531659141344cd1fd0a4f28419497f9722a3daafe3b4186f6b6457e0908390a3600080546001600160a01b0319169055565b6000546001600160a01b031690565b6000546001600160a01b0316331490565b606080600b6000336001600160a01b03166001600160a01b0316815260200190815260200160002054604051908082528060200260200182016040528015610a40578160200160208202803883390190505b5090506000805b600954811215610a98576000818152600a60205260409020546001600160a01b0316331415610a905780838381518110610a7d57fe5b6020026020010181815250506001820191505b600101610a47565b509091505090565b606080808060005b600d54811015610aba57600101610aa8565b5090925090509091565b60055481565b60045481565b6004544210610b26576040805162461bcd60e51b815260206004820181905260248201527f536f72727920776520617265206e6f742073656c6c696e6720616e796d6f7265604482015290519081900360640190fd5b600060015411610b76576040805162461bcd60e51b815260206004820152601660248201527529b7b9393c903bb29030b9329039b7b6321037baba1760511b604482015290519081900360640190fd5b600081600154031215610bba5760405162461bcd60e51b81526004018080602001828103825260288152602001806110096028913960400191505060405180910390fd5b80600554023414610c09576040805162461bcd60e51b81526020600482015260146024820152734e6f6e2d6e65676f746961626c6520707269636560601b604482015290519081900360640190fd5b60005b81811015610734576000610c2284600154610e21565b600180546000190190559050606481069003610c3d81610ea9565b50600101610c0c565b60065460ff1681565b8151336000908152600b602052604081205490911115610ca05760405162461bcd60e51b81526004018080602001828103825260278152602001806110316027913960400191505060405180910390fd5b60005b8351811015610d3257336001600160a01b0316600a6000868481518110610cc657fe5b6020908102919091018101518252810191909152604001600020546001600160a01b031614610cf457600080fd5b82600e6000868481518110610d0557fe5b602090810291909101810151825281019190915260400160002055600d8054600190810190915501610ca3565b5092915050565b610d416109dd565b610d4a57600080fd5b610d5381610f72565b50565b6001600160a01b0382166000908152600b6020526040902054610d8090600163ffffffff610fe016565b6001600160a01b0383166000908152600b6020526040808220929092553381522054610db390600163ffffffff610ff616565b336000908152600b6020908152604080832093909355838252600a905281812080546001600160a01b0319166001600160a01b038681169182179092559251849392918716917fddf252ad1be2c89b69c2b068fc378daa952ba7f163c4a11628f55a4df523b3ef91a4505050565b60008083836040516020018083805190602001908083835b60208310610e585780518252601f199092019160209182019101610e39565b51815160209384036101000a600019018019909216911617905292019384525060408051808503815293820190528251920191909120600854909350915082905081610ea057fe5b06949350505050565b60408051602080820183528382526009805460018181018355600092835293517f6e1540171b6c0c960b71a7020d9f60077f6af931a8bbf590da0223dacf75c7af820155808252600a835284822080546001600160a01b031916339081179091558252600b9092529290922054610f259163ffffffff610fe016565b336000908152600b602090815260409182902092909255805184815290517f44ff5a1d96b658d6e6d1368850d7b60d71011fd0d12f5ff7a448ee083f7a648e929181900390910190a15050565b6001600160a01b038116610f8557600080fd5b600080546040516001600160a01b03808516939216917f8be0079c531659141344cd1fd0a4f28419497f9722a3daafe3b4186f6b6457e091a3600080546001600160a01b0319166001600160a01b0392909216919091179055565b600082820183811015610fef57fe5b9392505050565b60008282111561100257fe5b5090039056fe576520646f6e7420686176652074686174206d616e79207469636b65747320617661696c61626c65596f7520646f206e6f742068617665206173206d616e79207469636b65747320746f2073656c6ca265627a7a72315820e488bdb55c796c0f63e8ec6a1fb3e614efb65b193243cfe0e3bc72db3961933c64736f6c63430005100032a365627a7a723158209fa132483d7dec1d471318fe561170227b6b2c809aeca3f49d12b1d5081654146c6578706572696d656e74616cf564736f6c63430005100040",
  "source": "pragma solidity >=0.5.0 <0.6.0;\r\npragma experimental ABIEncoderV2;\r\n\r\nimport \"./ticketresale.sol\";\r\n\r\ncontract Event {\r\n\r\n    uint256 public eventId;\r\n\r\n    struct eventInfo {\r\n        string event_name;\r\n        uint256 event_date;\r\n        string event_description;\r\n        string event_section;\r\n        uint event_section_amount;\r\n        uint event_section_price;\r\n    }\r\n\r\n    mapping(uint => TicketResale) event_id_to_tickets;\r\n    mapping(address => eventInfo[]) events_address;\r\n    mapping(uint256 => eventInfo) events_ids;\r\n    uint256[] public eventIds;\r\n\r\n    function createEvent(string memory event_name, uint256 event_date, string memory event_description, string memory event_section, uint event_section_amount, uint event_section_price) public {\r\n        eventId++;\r\n        eventInfo storage newEvent = events_ids[eventId];\r\n        newEvent.event_name = event_name;\r\n        newEvent.event_date = event_date;\r\n        newEvent.event_description = event_description;\r\n        newEvent.event_section = event_section;\r\n        newEvent.event_section_amount = event_section_amount;\r\n        newEvent.event_section_price = event_section_price;\r\n        eventIds.push(eventId);\r\n        events_address[msg.sender].push(newEvent);\r\n        event_id_to_tickets[eventId] = new TicketResale(event_date,msg.sender,event_section_price,event_section_amount);\r\n    }\r\n\r\n    function getEvent(uint256 id) public view returns(string memory, uint256 , string memory, string memory, uint , uint ) {\r\n        eventInfo storage s = events_ids[id];\r\n        return (s.event_name, s.event_date, s.event_description, s.event_section, s.event_section_amount, s.event_section_price);\r\n    }\r\n\r\n    function getMyEvents() public view returns(eventInfo[] memory){\r\n        return events_address[msg.sender];\r\n    }\r\n\r\n    function getEventTickets(uint256 id) public view returns(TicketResale) {\r\n        return event_id_to_tickets[id];\r\n    }\r\n}",
  "sourcePath": "D:\\Personal\\College Files\\CS481\\TermP\\concert_ticketing_dApp\\contracts\\event.sol",
  "compiler": {
    "name": "solc",
    "version": "0.5.16+commit.9c3226ce.Emscripten.clang"
  },
  "schemaVersion": "3.0.23",
  "updatedAt": "2020-05-01T00:05:10.463Z",
  "devdoc": {
    "methods": {}
  },
  "userdoc": {
    "methods": {}
  }
}