{
  "contractName": "TicketResale",
  "abi": [
    {
      "inputs": [
        {
          "internalType": "uint256",
          "name": "_sellingTime",
          "type": "uint256"
        },
        {
          "internalType": "address",
          "name": "_owner",
          "type": "address"
        },
        {
          "internalType": "uint256",
          "name": "_price",
          "type": "uint256"
        },
        {
          "internalType": "uint256",
          "name": "_availableTickets",
          "type": "uint256"
        }
      ],
      "payable": false,
      "stateMutability": "nonpayable",
      "type": "constructor"
    },
    {
      "anonymous": false,
      "inputs": [
        {
          "indexed": true,
          "internalType": "address",
          "name": "_owner",
          "type": "address"
        },
        {
          "indexed": true,
          "internalType": "address",
          "name": "_approved",
          "type": "address"
        },
        {
          "indexed": true,
          "internalType": "uint256",
          "name": "_tokenId",
          "type": "uint256"
        }
      ],
      "name": "Approval",
      "type": "event"
    },
    {
      "anonymous": false,
      "inputs": [
        {
          "indexed": false,
          "internalType": "string",
          "name": "message",
          "type": "string"
        },
        {
          "indexed": false,
          "internalType": "uint256",
          "name": "time",
          "type": "uint256"
        }
      ],
      "name": "CanceledEvent",
      "type": "event"
    },
    {
      "anonymous": false,
      "inputs": [
        {
          "indexed": false,
          "internalType": "uint256",
          "name": "dna",
          "type": "uint256"
        }
      ],
      "name": "NewTicket",
      "type": "event"
    },
    {
      "anonymous": false,
      "inputs": [
        {
          "indexed": true,
          "internalType": "address",
          "name": "previousOwner",
          "type": "address"
        },
        {
          "indexed": true,
          "internalType": "address",
          "name": "newOwner",
          "type": "address"
        }
      ],
      "name": "OwnershipTransferred",
      "type": "event"
    },
    {
      "anonymous": false,
      "inputs": [
        {
          "indexed": true,
          "internalType": "address",
          "name": "_from",
          "type": "address"
        },
        {
          "indexed": true,
          "internalType": "address",
          "name": "_to",
          "type": "address"
        },
        {
          "indexed": true,
          "internalType": "uint256",
          "name": "_tokenId",
          "type": "uint256"
        }
      ],
      "name": "Transfer",
      "type": "event"
    },
    {
      "constant": true,
      "inputs": [],
      "name": "STATE",
      "outputs": [
        {
          "internalType": "enum TicketFactory.sale_state",
          "name": "",
          "type": "uint8"
        }
      ],
      "payable": false,
      "stateMutability": "view",
      "type": "function"
    },
    {
      "constant": false,
      "inputs": [
        {
          "internalType": "string",
          "name": "_name",
          "type": "string"
        },
        {
          "internalType": "uint256",
          "name": "numberOfTickets",
          "type": "uint256"
        }
      ],
      "name": "_buyTickets",
      "outputs": [],
      "payable": true,
      "stateMutability": "payable",
      "type": "function"
    },
    {
      "constant": false,
      "inputs": [
        {
          "internalType": "address",
          "name": "_approved",
          "type": "address"
        },
        {
          "internalType": "uint256",
          "name": "_tokenId",
          "type": "uint256"
        }
      ],
      "name": "approve",
      "outputs": [],
      "payable": true,
      "stateMutability": "payable",
      "type": "function"
    },
    {
      "constant": true,
      "inputs": [],
      "name": "availableTickets",
      "outputs": [
        {
          "internalType": "uint256",
          "name": "",
          "type": "uint256"
        }
      ],
      "payable": false,
      "stateMutability": "view",
      "type": "function"
    },
    {
      "constant": true,
      "inputs": [
        {
          "internalType": "address",
          "name": "_owner",
          "type": "address"
        }
      ],
      "name": "balanceOf",
      "outputs": [
        {
          "internalType": "uint256",
          "name": "",
          "type": "uint256"
        }
      ],
      "payable": false,
      "stateMutability": "view",
      "type": "function"
    },
    {
      "constant": false,
      "inputs": [],
      "name": "cancel_sale",
      "outputs": [
        {
          "internalType": "bool",
          "name": "",
          "type": "bool"
        }
      ],
      "payable": false,
      "stateMutability": "nonpayable",
      "type": "function"
    },
    {
      "constant": true,
      "inputs": [],
      "name": "isOwner",
      "outputs": [
        {
          "internalType": "bool",
          "name": "",
          "type": "bool"
        }
      ],
      "payable": false,
      "stateMutability": "view",
      "type": "function"
    },
    {
      "constant": true,
      "inputs": [],
      "name": "owner",
      "outputs": [
        {
          "internalType": "address",
          "name": "",
          "type": "address"
        }
      ],
      "payable": false,
      "stateMutability": "view",
      "type": "function"
    },
    {
      "constant": true,
      "inputs": [
        {
          "internalType": "uint256",
          "name": "_tokenId",
          "type": "uint256"
        }
      ],
      "name": "ownerOf",
      "outputs": [
        {
          "internalType": "address",
          "name": "",
          "type": "address"
        }
      ],
      "payable": false,
      "stateMutability": "view",
      "type": "function"
    },
    {
      "constant": true,
      "inputs": [],
      "name": "price",
      "outputs": [
        {
          "internalType": "uint256",
          "name": "",
          "type": "uint256"
        }
      ],
      "payable": false,
      "stateMutability": "view",
      "type": "function"
    },
    {
      "constant": false,
      "inputs": [],
      "name": "renounceOwnership",
      "outputs": [],
      "payable": false,
      "stateMutability": "nonpayable",
      "type": "function"
    },
    {
      "constant": true,
      "inputs": [],
      "name": "sale_end",
      "outputs": [
        {
          "internalType": "uint256",
          "name": "",
          "type": "uint256"
        }
      ],
      "payable": false,
      "stateMutability": "view",
      "type": "function"
    },
    {
      "constant": true,
      "inputs": [],
      "name": "sale_start",
      "outputs": [
        {
          "internalType": "uint256",
          "name": "",
          "type": "uint256"
        }
      ],
      "payable": false,
      "stateMutability": "view",
      "type": "function"
    },
    {
      "constant": true,
      "inputs": [
        {
          "internalType": "uint256",
          "name": "",
          "type": "uint256"
        }
      ],
      "name": "ticketToPrice",
      "outputs": [
        {
          "internalType": "uint256",
          "name": "",
          "type": "uint256"
        }
      ],
      "payable": false,
      "stateMutability": "view",
      "type": "function"
    },
    {
      "constant": true,
      "inputs": [
        {
          "internalType": "uint256",
          "name": "",
          "type": "uint256"
        }
      ],
      "name": "tickets",
      "outputs": [
        {
          "internalType": "uint256",
          "name": "dna",
          "type": "uint256"
        }
      ],
      "payable": false,
      "stateMutability": "view",
      "type": "function"
    },
    {
      "constant": false,
      "inputs": [
        {
          "internalType": "address",
          "name": "_from",
          "type": "address"
        },
        {
          "internalType": "address",
          "name": "_to",
          "type": "address"
        },
        {
          "internalType": "uint256",
          "name": "_tokenId",
          "type": "uint256"
        }
      ],
      "name": "transferFrom",
      "outputs": [],
      "payable": true,
      "stateMutability": "payable",
      "type": "function"
    },
    {
      "constant": false,
      "inputs": [
        {
          "internalType": "address",
          "name": "newOwner",
          "type": "address"
        }
      ],
      "name": "transferOwnership",
      "outputs": [],
      "payable": false,
      "stateMutability": "nonpayable",
      "type": "function"
    },
    {
      "constant": false,
      "inputs": [
        {
          "internalType": "uint256[]",
          "name": "number_tickets",
          "type": "uint256[]"
        }
      ],
      "name": "buy_from_reseller",
      "outputs": [
        {
          "internalType": "bool",
          "name": "",
          "type": "bool"
        }
      ],
      "payable": true,
      "stateMutability": "payable",
      "type": "function"
    },
    {
      "constant": true,
      "inputs": [],
      "name": "list_prices",
      "outputs": [
        {
          "internalType": "uint256[]",
          "name": "",
          "type": "uint256[]"
        },
        {
          "internalType": "uint256[]",
          "name": "",
          "type": "uint256[]"
        }
      ],
      "payable": false,
      "stateMutability": "view",
      "type": "function"
    },
    {
      "constant": true,
      "inputs": [],
      "name": "list_my_tickets",
      "outputs": [
        {
          "internalType": "int256[]",
          "name": "",
          "type": "int256[]"
        }
      ],
      "payable": false,
      "stateMutability": "view",
      "type": "function"
    },
    {
      "constant": false,
      "inputs": [
        {
          "internalType": "uint256[]",
          "name": "my_tickets",
          "type": "uint256[]"
        },
        {
          "internalType": "uint256",
          "name": "my_price",
          "type": "uint256"
        }
      ],
      "name": "sell_my_tickets",
      "outputs": [
        {
          "internalType": "bool",
          "name": "",
          "type": "bool"
        }
      ],
      "payable": false,
      "stateMutability": "nonpayable",
      "type": "function"
    }
  ],
  "bytecode": "0x60806040526010600755662386f26fc100006008556000600d5534801561002557600080fd5b5060405161118b38038061118b8339818101604052608081101561004857600080fd5b5080516020820151604080840151606090940151600080546001600160a01b031916331780825592519495939491926001600160a01b0316917f8be0079c531659141344cd1fd0a4f28419497f9722a3daafe3b4186f6b6457e0908290a36001818155670de0b6b3a76400008302600555600280546001600160a01b0319166001600160a01b0386161790554260035560048590556006805460ff1916828002179055505050505061108c806100ff6000396000f3fe60806040526004361061012a5760003560e01c8063715018a6116100ab578063a035b1fe1161006f578063a035b1fe146104ba578063b9b994d7146104cf578063bd75f871146104e4578063c486456c1461058c578063ddba10e6146105c5578063f2fde38b146106775761012a565b8063715018a6146103685780638da5cb5b1461037d5780638f32d59b146103925780639064e83b146103a7578063925d90701461040c5761012a565b806350b44712116100f257806350b4471214610286578063517679c2146102b05780636352211e146102da57806369c1d4a91461032057806370a08231146103355761012a565b8063095ea7b31461012f57806323b872dd1461015d5780632e5c0fe7146101935780633111faac146101ba5780633cfa7e0114610271575b600080fd5b61015b6004803603604081101561014557600080fd5b506001600160a01b0381351690602001356106aa565b005b61015b6004803603606081101561017357600080fd5b506001600160a01b03813581169160208101359091169060400135610729565b34801561019f57600080fd5b506101a8610739565b60408051918252519081900360200190f35b61025d600480360360208110156101d057600080fd5b8101906020810181356401000000008111156101eb57600080fd5b8201836020820111156101fd57600080fd5b8035906020019184602083028401116401000000008311171561021f57600080fd5b91908080602002602001604051908101604052809392919081815260200183836020028082843760009201919091525092955061073f945050505050565b604080519115158252519081900360200190f35b34801561027d57600080fd5b506101a8610886565b34801561029257600080fd5b506101a8600480360360208110156102a957600080fd5b503561088c565b3480156102bc57600080fd5b506101a8600480360360208110156102d357600080fd5b50356108aa565b3480156102e657600080fd5b50610304600480360360208110156102fd57600080fd5b50356108bc565b604080516001600160a01b039092168252519081900360200190f35b34801561032c57600080fd5b5061025d6108d7565b34801561034157600080fd5b506101a86004803603602081101561035857600080fd5b50356001600160a01b0316610958565b34801561037457600080fd5b5061015b610973565b34801561038957600080fd5b506103046109ce565b34801561039e57600080fd5b5061025d6109dd565b3480156103b357600080fd5b506103bc6109ee565b60408051602080825283518183015283519192839290830191858101910280838360005b838110156103f85781810151838201526020016103e0565b505050509050019250505060405180910390f35b34801561041857600080fd5b50610421610aa0565b604051808060200180602001838103835285818151815260200191508051906020019060200280838360005b8381101561046557818101518382015260200161044d565b50505050905001838103825284818151815260200191508051906020019060200280838360005b838110156104a457818101518382015260200161048c565b5050505090500194505050505060405180910390f35b3480156104c657600080fd5b506101a8610ac4565b3480156104db57600080fd5b506101a8610aca565b61015b600480360360408110156104fa57600080fd5b81019060208101813564010000000081111561051557600080fd5b82018360208201111561052757600080fd5b8035906020019184600183028401116401000000008311171561054957600080fd5b91908080601f0160208091040260200160405190810160405280939291908181526020018383808284376000920191909152509295505091359250610ad0915050565b34801561059857600080fd5b506105a1610c46565b604051808260018111156105b157fe5b60ff16815260200191505060405180910390f35b3480156105d157600080fd5b5061025d600480360360408110156105e857600080fd5b81019060208101813564010000000081111561060357600080fd5b82018360208201111561061557600080fd5b8035906020019184602083028401116401000000008311171561063757600080fd5b9190808060200260200160405190810160405280939291908181526020018383602002808284376000920191909152509295505091359250610c4f915050565b34801561068357600080fd5b5061015b6004803603602081101561069a57600080fd5b50356001600160a01b0316610d39565b6000818152600a602052604090205481906001600160a01b031633146106cf57600080fd5b6000828152600c602052604080822080546001600160a01b0319166001600160a01b0387169081179091559051849233917f8c5be1e5ebec7d5bd14f71427d1e84f3dd0314c0f7b2291e5b200ac8c7c3b9259190a4505050565b610734838383610d56565b505050565b60035481565b600080805b835181101561078557600e600085838151811061075d57fe5b6020026020010151815260200190815260200160002054820191508080600101915050610744565b508034146107da576040805162461bcd60e51b815260206004820152601c60248201527f596f7520646f206e6f74206861766520656e6f75676820657468657200000000604482015290519081900360640190fd5b60005b835181101561087c5761083d600a60008684815181106107f957fe5b6020026020010151815260200190815260200160002060009054906101000a90046001600160a01b03163386848151811061083057fe5b6020026020010151610729565b600e600085838151811061084d57fe5b6020908102919091018101518252810191909152604001600090812055600d80546000190190556001016107dd565b5060019392505050565b60015481565b6009818154811061089957fe5b600091825260209091200154905081565b600e6020526000908152604090205481565b6000908152600a60205260409020546001600160a01b031690565b60006004544211156108e857600080fd5b6006805460ff1916905542600481905560408051602081019290925280825260118282015270105d58dd1a5bdb8810d85b98d95b1b1959607a1b6060830152517f06b08932edfa95ecf10e18f8e389c58332551bbfe5faf843ed9afb329fd141189181900360800190a150600190565b6001600160a01b03166000908152600b602052604090205490565b61097b6109dd565b61098457600080fd5b600080546040516001600160a01b03909116907f8be0079c531659141344cd1fd0a4f28419497f9722a3daafe3b4186f6b6457e0908390a3600080546001600160a01b0319169055565b6000546001600160a01b031690565b6000546001600160a01b0316331490565b606080600b6000336001600160a01b03166001600160a01b0316815260200190815260200160002054604051908082528060200260200182016040528015610a40578160200160208202803883390190505b5090506000805b600954811215610a98576000818152600a60205260409020546001600160a01b0316331415610a905780838381518110610a7d57fe5b6020026020010181815250506001820191505b600101610a47565b509091505090565b606080808060005b600d54811015610aba57600101610aa8565b5090925090509091565b60055481565b60045481565b6004544210610b26576040805162461bcd60e51b815260206004820181905260248201527f536f72727920776520617265206e6f742073656c6c696e6720616e796d6f7265604482015290519081900360640190fd5b600060015411610b76576040805162461bcd60e51b815260206004820152601660248201527529b7b9393c903bb29030b9329039b7b6321037baba1760511b604482015290519081900360640190fd5b600081600154031215610bba5760405162461bcd60e51b81526004018080602001828103825260288152602001806110096028913960400191505060405180910390fd5b80600554023414610c09576040805162461bcd60e51b81526020600482015260146024820152734e6f6e2d6e65676f746961626c6520707269636560601b604482015290519081900360640190fd5b60005b81811015610734576000610c2284600154610e21565b600180546000190190559050606481069003610c3d81610ea9565b50600101610c0c565b60065460ff1681565b8151336000908152600b602052604081205490911115610ca05760405162461bcd60e51b81526004018080602001828103825260278152602001806110316027913960400191505060405180910390fd5b60005b8351811015610d3257336001600160a01b0316600a6000868481518110610cc657fe5b6020908102919091018101518252810191909152604001600020546001600160a01b031614610cf457600080fd5b82600e6000868481518110610d0557fe5b602090810291909101810151825281019190915260400160002055600d8054600190810190915501610ca3565b5092915050565b610d416109dd565b610d4a57600080fd5b610d5381610f72565b50565b6001600160a01b0382166000908152600b6020526040902054610d8090600163ffffffff610fe016565b6001600160a01b0383166000908152600b6020526040808220929092553381522054610db390600163ffffffff610ff616565b336000908152600b6020908152604080832093909355838252600a905281812080546001600160a01b0319166001600160a01b038681169182179092559251849392918716917fddf252ad1be2c89b69c2b068fc378daa952ba7f163c4a11628f55a4df523b3ef91a4505050565b60008083836040516020018083805190602001908083835b60208310610e585780518252601f199092019160209182019101610e39565b51815160209384036101000a600019018019909216911617905292019384525060408051808503815293820190528251920191909120600854909350915082905081610ea057fe5b06949350505050565b60408051602080820183528382526009805460018181018355600092835293517f6e1540171b6c0c960b71a7020d9f60077f6af931a8bbf590da0223dacf75c7af820155808252600a835284822080546001600160a01b031916339081179091558252600b9092529290922054610f259163ffffffff610fe016565b336000908152600b602090815260409182902092909255805184815290517f44ff5a1d96b658d6e6d1368850d7b60d71011fd0d12f5ff7a448ee083f7a648e929181900390910190a15050565b6001600160a01b038116610f8557600080fd5b600080546040516001600160a01b03808516939216917f8be0079c531659141344cd1fd0a4f28419497f9722a3daafe3b4186f6b6457e091a3600080546001600160a01b0319166001600160a01b0392909216919091179055565b600082820183811015610fef57fe5b9392505050565b60008282111561100257fe5b5090039056fe576520646f6e7420686176652074686174206d616e79207469636b65747320617661696c61626c65596f7520646f206e6f742068617665206173206d616e79207469636b65747320746f2073656c6ca265627a7a72315820e488bdb55c796c0f63e8ec6a1fb3e614efb65b193243cfe0e3bc72db3961933c64736f6c63430005100032",
  "source": "pragma solidity >=0.5.0 <0.6.0;\r\n\r\n\r\nimport \"./ticketownership.sol\";\r\n\r\ncontract TicketResale is TicketOwnership{\r\n\r\n\r\n    constructor (uint _sellingTime, address _owner, uint _price, uint _availableTickets) public {\r\n        availableTickets = _availableTickets;\r\n        price = _price*1 ether;\r\n        venue_owner = _owner;\r\n        sale_start=now;\r\n        sale_end = _sellingTime;\r\n        STATE=sale_state.STARTED;\r\n    }\r\n\r\n   uint resaleTicketCount = 0;\r\n\r\n    mapping (uint => uint) public ticketToPrice;\r\n    uint[] secondHandTicketId;\r\n\r\n    function buy_from_reseller(uint[] memory number_tickets) public payable returns (bool){\r\n        uint resale_price = 0 * 1 ether;\r\n        for(uint i = 0 ; i < number_tickets.length; i++){\r\n            resale_price += ticketToPrice[number_tickets[i]];\r\n        }\r\n        require(msg.value == resale_price, \"You do not have enough ether\");\r\n        for(uint i = 0 ; i < number_tickets.length; i++){\r\n            transferFrom(ticketToOwner[number_tickets[i]], msg.sender, number_tickets[i]);\r\n            delete ticketToPrice[number_tickets[i]];\r\n            resaleTicketCount-=1;\r\n        }\r\n\r\n\r\n        return true;\r\n    }\r\n\r\n    function list_prices() public view returns (uint[] memory, uint[] memory){\r\n        uint[] memory availableTicketPrices;\r\n        uint[] memory available_ticketIDs;\r\n        for(uint i = 0; i < resaleTicketCount; i++){\r\n\r\n        }\r\n        return (availableTicketPrices, available_ticketIDs);\r\n    }\r\n\r\n    function list_my_tickets() public view returns (int[]  memory){\r\n        int[] memory my_tickets = new int[](ownerTicketCount[msg.sender]);\r\n        uint j = 0;\r\n        for(int i = 0; i < int(tickets.length); i++){\r\n            if(ticketToOwner[uint(i)] == msg.sender){\r\n                my_tickets[j] = i;\r\n                j+=1;\r\n            }\r\n        }\r\n        return my_tickets;\r\n    }\r\n\r\n    function sell_my_tickets(uint[] memory my_tickets, uint my_price) public returns (bool){\r\n        require(ownerTicketCount[msg.sender] >= my_tickets.length, \"You do not have as many tickets to sell\");\r\n        for(uint i = 0; i < my_tickets.length; i++){\r\n            require(ticketToOwner[my_tickets[i]] == msg.sender);\r\n            ticketToPrice[my_tickets[i]] = my_price;\r\n            resaleTicketCount+=1;\r\n        }\r\n    }\r\n}",
  "sourcePath": "D:\\Personal\\College Files\\CS481\\TermP\\concert_ticketing_dApp\\contracts\\ticketresale.sol",
  "compiler": {
    "name": "solc",
    "version": "0.5.16+commit.9c3226ce.Emscripten.clang"
  },
  "schemaVersion": "3.0.23",
  "updatedAt": "2020-05-01T00:05:10.495Z",
  "devdoc": {
    "methods": {
      "isOwner()": {
        "return": "true if `msg.sender` is the owner of the contract."
      },
      "owner()": {
        "return": "the address of the owner."
      },
      "renounceOwnership()": {
        "details": "Allows the current owner to relinquish control of the contract."
      },
      "transferOwnership(address)": {
        "details": "Allows the current owner to transfer control of the contract to a newOwner.",
        "params": {
          "newOwner": "The address to transfer ownership to."
        }
      }
    }
  },
  "userdoc": {
    "methods": {
      "renounceOwnership()": {
        "notice": "Renouncing to ownership will leave the contract without an owner. It will not be possible to call the functions with the `onlyOwner` modifier anymore."
      }
    }
  }
}