{
  "contractName": "TicketOwnership",
  "abi": [
    {
      "anonymous": false,
      "inputs": [
        {
          "indexed": true,
          "internalType": "address",
          "name": "_owner",
          "type": "address"
        },
        {
          "indexed": true,
          "internalType": "address",
          "name": "_approved",
          "type": "address"
        },
        {
          "indexed": true,
          "internalType": "uint256",
          "name": "_tokenId",
          "type": "uint256"
        }
      ],
      "name": "Approval",
      "type": "event"
    },
    {
      "anonymous": false,
      "inputs": [
        {
          "indexed": false,
          "internalType": "string",
          "name": "message",
          "type": "string"
        },
        {
          "indexed": false,
          "internalType": "uint256",
          "name": "time",
          "type": "uint256"
        }
      ],
      "name": "CanceledEvent",
      "type": "event"
    },
    {
      "anonymous": false,
      "inputs": [
        {
          "indexed": false,
          "internalType": "uint256",
          "name": "dna",
          "type": "uint256"
        }
      ],
      "name": "NewTicket",
      "type": "event"
    },
    {
      "anonymous": false,
      "inputs": [
        {
          "indexed": true,
          "internalType": "address",
          "name": "previousOwner",
          "type": "address"
        },
        {
          "indexed": true,
          "internalType": "address",
          "name": "newOwner",
          "type": "address"
        }
      ],
      "name": "OwnershipTransferred",
      "type": "event"
    },
    {
      "anonymous": false,
      "inputs": [
        {
          "indexed": true,
          "internalType": "address",
          "name": "_from",
          "type": "address"
        },
        {
          "indexed": true,
          "internalType": "address",
          "name": "_to",
          "type": "address"
        },
        {
          "indexed": true,
          "internalType": "uint256",
          "name": "_tokenId",
          "type": "uint256"
        }
      ],
      "name": "Transfer",
      "type": "event"
    },
    {
      "constant": true,
      "inputs": [],
      "name": "STATE",
      "outputs": [
        {
          "internalType": "enum TicketFactory.sale_state",
          "name": "",
          "type": "uint8"
        }
      ],
      "payable": false,
      "stateMutability": "view",
      "type": "function"
    },
    {
      "constant": false,
      "inputs": [
        {
          "internalType": "string",
          "name": "_name",
          "type": "string"
        },
        {
          "internalType": "uint256",
          "name": "numberOfTickets",
          "type": "uint256"
        }
      ],
      "name": "_buyTickets",
      "outputs": [],
      "payable": true,
      "stateMutability": "payable",
      "type": "function"
    },
    {
      "constant": true,
      "inputs": [],
      "name": "availableTickets",
      "outputs": [
        {
          "internalType": "uint256",
          "name": "",
          "type": "uint256"
        }
      ],
      "payable": false,
      "stateMutability": "view",
      "type": "function"
    },
    {
      "constant": true,
      "inputs": [],
      "name": "isOwner",
      "outputs": [
        {
          "internalType": "bool",
          "name": "",
          "type": "bool"
        }
      ],
      "payable": false,
      "stateMutability": "view",
      "type": "function"
    },
    {
      "constant": true,
      "inputs": [],
      "name": "owner",
      "outputs": [
        {
          "internalType": "address",
          "name": "",
          "type": "address"
        }
      ],
      "payable": false,
      "stateMutability": "view",
      "type": "function"
    },
    {
      "constant": true,
      "inputs": [],
      "name": "price",
      "outputs": [
        {
          "internalType": "uint256",
          "name": "",
          "type": "uint256"
        }
      ],
      "payable": false,
      "stateMutability": "view",
      "type": "function"
    },
    {
      "constant": false,
      "inputs": [],
      "name": "renounceOwnership",
      "outputs": [],
      "payable": false,
      "stateMutability": "nonpayable",
      "type": "function"
    },
    {
      "constant": true,
      "inputs": [],
      "name": "sale_end",
      "outputs": [
        {
          "internalType": "uint256",
          "name": "",
          "type": "uint256"
        }
      ],
      "payable": false,
      "stateMutability": "view",
      "type": "function"
    },
    {
      "constant": true,
      "inputs": [],
      "name": "sale_start",
      "outputs": [
        {
          "internalType": "uint256",
          "name": "",
          "type": "uint256"
        }
      ],
      "payable": false,
      "stateMutability": "view",
      "type": "function"
    },
    {
      "constant": true,
      "inputs": [
        {
          "internalType": "uint256",
          "name": "",
          "type": "uint256"
        }
      ],
      "name": "tickets",
      "outputs": [
        {
          "internalType": "uint256",
          "name": "dna",
          "type": "uint256"
        }
      ],
      "payable": false,
      "stateMutability": "view",
      "type": "function"
    },
    {
      "constant": false,
      "inputs": [
        {
          "internalType": "address",
          "name": "newOwner",
          "type": "address"
        }
      ],
      "name": "transferOwnership",
      "outputs": [],
      "payable": false,
      "stateMutability": "nonpayable",
      "type": "function"
    },
    {
      "constant": false,
      "inputs": [],
      "name": "cancel_sale",
      "outputs": [
        {
          "internalType": "bool",
          "name": "",
          "type": "bool"
        }
      ],
      "payable": false,
      "stateMutability": "nonpayable",
      "type": "function"
    },
    {
      "constant": true,
      "inputs": [
        {
          "internalType": "address",
          "name": "_owner",
          "type": "address"
        }
      ],
      "name": "balanceOf",
      "outputs": [
        {
          "internalType": "uint256",
          "name": "",
          "type": "uint256"
        }
      ],
      "payable": false,
      "stateMutability": "view",
      "type": "function"
    },
    {
      "constant": true,
      "inputs": [
        {
          "internalType": "uint256",
          "name": "_tokenId",
          "type": "uint256"
        }
      ],
      "name": "ownerOf",
      "outputs": [
        {
          "internalType": "address",
          "name": "",
          "type": "address"
        }
      ],
      "payable": false,
      "stateMutability": "view",
      "type": "function"
    },
    {
      "constant": false,
      "inputs": [
        {
          "internalType": "address",
          "name": "_from",
          "type": "address"
        },
        {
          "internalType": "address",
          "name": "_to",
          "type": "address"
        },
        {
          "internalType": "uint256",
          "name": "_tokenId",
          "type": "uint256"
        }
      ],
      "name": "transferFrom",
      "outputs": [],
      "payable": true,
      "stateMutability": "payable",
      "type": "function"
    },
    {
      "constant": false,
      "inputs": [
        {
          "internalType": "address",
          "name": "_approved",
          "type": "address"
        },
        {
          "internalType": "uint256",
          "name": "_tokenId",
          "type": "uint256"
        }
      ],
      "name": "approve",
      "outputs": [],
      "payable": true,
      "stateMutability": "payable",
      "type": "function"
    }
  ],
  "bytecode": "0x608060408190526010600755662386f26fc10000600855600080546001600160a01b03191633178082556001600160a01b0316917f8be0079c531659141344cd1fd0a4f28419497f9722a3daafe3b4186f6b6457e0908290a3610a83806100676000396000f3fe6080604052600436106100f35760003560e01c8063715018a61161008a578063b9b994d711610059578063b9b994d7146102b8578063bd75f871146102cd578063c486456c14610375578063f2fde38b146103ae576100f3565b8063715018a6146102645780638da5cb5b146102795780638f32d59b1461028e578063a035b1fe146102a3576100f3565b806350b44712116100c657806350b44712146101985780636352211e146101c257806369c1d4a91461020857806370a0823114610231576100f3565b8063095ea7b3146100f857806323b872dd146101265780632e5c0fe71461015c5780633cfa7e0114610183575b600080fd5b6101246004803603604081101561010e57600080fd5b506001600160a01b0381351690602001356103e1565b005b6101246004803603606081101561013c57600080fd5b506001600160a01b03813581169160208101359091169060400135610460565b34801561016857600080fd5b50610171610470565b60408051918252519081900360200190f35b34801561018f57600080fd5b50610171610476565b3480156101a457600080fd5b50610171600480360360208110156101bb57600080fd5b503561047c565b3480156101ce57600080fd5b506101ec600480360360208110156101e557600080fd5b503561049a565b604080516001600160a01b039092168252519081900360200190f35b34801561021457600080fd5b5061021d6104b5565b604080519115158252519081900360200190f35b34801561023d57600080fd5b506101716004803603602081101561025457600080fd5b50356001600160a01b0316610536565b34801561027057600080fd5b50610124610551565b34801561028557600080fd5b506101ec6105ac565b34801561029a57600080fd5b5061021d6105bb565b3480156102af57600080fd5b506101716105cc565b3480156102c457600080fd5b506101716105d2565b610124600480360360408110156102e357600080fd5b8101906020810181356401000000008111156102fe57600080fd5b82018360208201111561031057600080fd5b8035906020019184600183028401116401000000008311171561033257600080fd5b91908080601f01602080910402602001604051908101604052809392919081815260200183838082843760009201919091525092955050913592506105d8915050565b34801561038157600080fd5b5061038a61074e565b6040518082600181111561039a57fe5b60ff16815260200191505060405180910390f35b3480156103ba57600080fd5b50610124600480360360208110156103d157600080fd5b50356001600160a01b0316610757565b6000818152600a602052604090205481906001600160a01b0316331461040657600080fd5b6000828152600c602052604080822080546001600160a01b0319166001600160a01b0387169081179091559051849233917f8c5be1e5ebec7d5bd14f71427d1e84f3dd0314c0f7b2291e5b200ac8c7c3b9259190a4505050565b61046b838383610774565b505050565b60035481565b60015481565b6009818154811061048957fe5b600091825260209091200154905081565b6000908152600a60205260409020546001600160a01b031690565b60006004544211156104c657600080fd5b6006805460ff1916905542600481905560408051602081019290925280825260118282015270105d58dd1a5bdb8810d85b98d95b1b1959607a1b6060830152517f06b08932edfa95ecf10e18f8e389c58332551bbfe5faf843ed9afb329fd141189181900360800190a150600190565b6001600160a01b03166000908152600b602052604090205490565b6105596105bb565b61056257600080fd5b600080546040516001600160a01b03909116907f8be0079c531659141344cd1fd0a4f28419497f9722a3daafe3b4186f6b6457e0908390a3600080546001600160a01b0319169055565b6000546001600160a01b031690565b6000546001600160a01b0316331490565b60055481565b60045481565b600454421061062e576040805162461bcd60e51b815260206004820181905260248201527f536f72727920776520617265206e6f742073656c6c696e6720616e796d6f7265604482015290519081900360640190fd5b60006001541161067e576040805162461bcd60e51b815260206004820152601660248201527529b7b9393c903bb29030b9329039b7b6321037baba1760511b604482015290519081900360640190fd5b6000816001540312156106c25760405162461bcd60e51b8152600401808060200182810382526028815260200180610a276028913960400191505060405180910390fd5b80600554023414610711576040805162461bcd60e51b81526020600482015260146024820152734e6f6e2d6e65676f746961626c6520707269636560601b604482015290519081900360640190fd5b60005b8181101561046b57600061072a8460015461083f565b600180546000190190559050606481069003610745816108c7565b50600101610714565b60065460ff1681565b61075f6105bb565b61076857600080fd5b61077181610990565b50565b6001600160a01b0382166000908152600b602052604090205461079e90600163ffffffff6109fe16565b6001600160a01b0383166000908152600b60205260408082209290925533815220546107d190600163ffffffff610a1416565b336000908152600b6020908152604080832093909355838252600a905281812080546001600160a01b0319166001600160a01b038681169182179092559251849392918716917fddf252ad1be2c89b69c2b068fc378daa952ba7f163c4a11628f55a4df523b3ef91a4505050565b60008083836040516020018083805190602001908083835b602083106108765780518252601f199092019160209182019101610857565b51815160209384036101000a6000190180199092169116179052920193845250604080518085038152938201905282519201919091206008549093509150829050816108be57fe5b06949350505050565b60408051602080820183528382526009805460018181018355600092835293517f6e1540171b6c0c960b71a7020d9f60077f6af931a8bbf590da0223dacf75c7af820155808252600a835284822080546001600160a01b031916339081179091558252600b90925292909220546109439163ffffffff6109fe16565b336000908152600b602090815260409182902092909255805184815290517f44ff5a1d96b658d6e6d1368850d7b60d71011fd0d12f5ff7a448ee083f7a648e929181900390910190a15050565b6001600160a01b0381166109a357600080fd5b600080546040516001600160a01b03808516939216917f8be0079c531659141344cd1fd0a4f28419497f9722a3daafe3b4186f6b6457e091a3600080546001600160a01b0319166001600160a01b0392909216919091179055565b600082820183811015610a0d57fe5b9392505050565b600082821115610a2057fe5b5090039056fe576520646f6e7420686176652074686174206d616e79207469636b65747320617661696c61626c65a265627a7a72315820492b2fb8edb474984b42f95100e61271643f2a29a110d15de2ca6e3d173364ac64736f6c63430005100032",
  "source": "pragma solidity >=0.5.0 <0.6.0;\r\n\r\nimport \"./erc721.sol\";\r\nimport \"./safemath.sol\";\r\n// import \"./ticketresale.sol\";\r\nimport \"./ticketfactory.sol\";\r\n\r\n/// TODO: Replace this with natspec descriptions\r\ncontract TicketOwnership is TicketFactory, ERC721 {\r\n\r\n\r\n    using SafeMath for uint256;\r\n\r\n    mapping (uint => address) zombieApprovals;\r\n\r\n    modifier onlyOwnerOf(uint _ticketId) {\r\n        require(msg.sender == ticketToOwner[_ticketId]);\r\n        _;\r\n    }\r\n\r\n    modifier an_ongoing_sale(){\r\n        require(now <= sale_end);\r\n        _;\r\n    }\r\n\r\n    //Change to cancael_sale\r\n    function cancel_sale() external an_ongoing_sale returns (bool){\r\n        STATE=sale_state.CANCELLED;\r\n        sale_end = now;\r\n        emit CanceledEvent(\"Auction Cancelled\", now);\r\n        return true;\r\n    }\r\n\r\n    function balanceOf(address _owner) external view returns (uint256) {\r\n        return ownerTicketCount[_owner];\r\n    }\r\n\r\n    function ownerOf(uint256 _tokenId) external view returns (address) {\r\n        return ticketToOwner[_tokenId];\r\n    }\r\n\r\n    function _transfer(address _from, address _to, uint256 _tokenId) private {\r\n        ownerTicketCount[_to] = ownerTicketCount[_to].add(1);\r\n        ownerTicketCount[msg.sender] = ownerTicketCount[msg.sender].sub(1);\r\n        ticketToOwner[_tokenId] = _to;\r\n        emit Transfer(_from, _to, _tokenId);\r\n    }\r\n\r\n    function transferFrom(address _from, address _to, uint256 _tokenId) public payable{\r\n        // require (ticketToOwner[_tokenId] == msg.sender || zombieApprovals[_tokenId] == msg.sender);\r\n        // require (ticketToOwner[_tokenId] == msg.sender);\r\n        _transfer(_from, _to, _tokenId);\r\n    }\r\n\r\n    function approve(address _approved, uint256 _tokenId) external payable onlyOwnerOf(_tokenId) {\r\n        zombieApprovals[_tokenId] = _approved;\r\n        emit Approval(msg.sender, _approved, _tokenId);\r\n    }\r\n\r\n}",
  "sourcePath": "D:\\Personal\\College Files\\CS481\\TermP\\concert_ticketing_dApp\\contracts\\ticketownership.sol",
  "compiler": {
    "name": "solc",
    "version": "0.5.16+commit.9c3226ce.Emscripten.clang"
  },
  "schemaVersion": "3.0.23",
  "updatedAt": "2020-05-01T00:05:10.489Z",
  "devdoc": {
    "methods": {
      "isOwner()": {
        "return": "true if `msg.sender` is the owner of the contract."
      },
      "owner()": {
        "return": "the address of the owner."
      },
      "renounceOwnership()": {
        "details": "Allows the current owner to relinquish control of the contract."
      },
      "transferOwnership(address)": {
        "details": "Allows the current owner to transfer control of the contract to a newOwner.",
        "params": {
          "newOwner": "The address to transfer ownership to."
        }
      }
    }
  },
  "userdoc": {
    "methods": {
      "renounceOwnership()": {
        "notice": "Renouncing to ownership will leave the contract without an owner. It will not be possible to call the functions with the `onlyOwner` modifier anymore."
      }
    },
    "notice": "TODO: Replace this with natspec descriptions"
  }
}