{
  "contractName": "TicketFactory",
  "abi": [
    {
      "anonymous": false,
      "inputs": [
        {
          "indexed": false,
          "internalType": "string",
          "name": "message",
          "type": "string"
        },
        {
          "indexed": false,
          "internalType": "uint256",
          "name": "time",
          "type": "uint256"
        }
      ],
      "name": "CanceledEvent",
      "type": "event"
    },
    {
      "anonymous": false,
      "inputs": [
        {
          "indexed": false,
          "internalType": "uint256",
          "name": "dna",
          "type": "uint256"
        }
      ],
      "name": "NewTicket",
      "type": "event"
    },
    {
      "anonymous": false,
      "inputs": [
        {
          "indexed": true,
          "internalType": "address",
          "name": "previousOwner",
          "type": "address"
        },
        {
          "indexed": true,
          "internalType": "address",
          "name": "newOwner",
          "type": "address"
        }
      ],
      "name": "OwnershipTransferred",
      "type": "event"
    },
    {
      "anonymous": false,
      "inputs": [
        {
          "indexed": false,
          "internalType": "address",
          "name": "from",
          "type": "address"
        },
        {
          "indexed": false,
          "internalType": "address",
          "name": "to",
          "type": "address"
        },
        {
          "indexed": false,
          "internalType": "uint256",
          "name": "tokenId",
          "type": "uint256"
        }
      ],
      "name": "Transfer",
      "type": "event"
    },
    {
      "constant": true,
      "inputs": [],
      "name": "STATE",
      "outputs": [
        {
          "internalType": "enum TicketFactory.sale_state",
          "name": "",
          "type": "uint8"
        }
      ],
      "payable": false,
      "stateMutability": "view",
      "type": "function"
    },
    {
      "constant": true,
      "inputs": [],
      "name": "availableTickets",
      "outputs": [
        {
          "internalType": "uint256",
          "name": "",
          "type": "uint256"
        }
      ],
      "payable": false,
      "stateMutability": "view",
      "type": "function"
    },
    {
      "constant": true,
      "inputs": [],
      "name": "isOwner",
      "outputs": [
        {
          "internalType": "bool",
          "name": "",
          "type": "bool"
        }
      ],
      "payable": false,
      "stateMutability": "view",
      "type": "function"
    },
    {
      "constant": true,
      "inputs": [],
      "name": "owner",
      "outputs": [
        {
          "internalType": "address",
          "name": "",
          "type": "address"
        }
      ],
      "payable": false,
      "stateMutability": "view",
      "type": "function"
    },
    {
      "constant": true,
      "inputs": [],
      "name": "price",
      "outputs": [
        {
          "internalType": "uint256",
          "name": "",
          "type": "uint256"
        }
      ],
      "payable": false,
      "stateMutability": "view",
      "type": "function"
    },
    {
      "constant": false,
      "inputs": [],
      "name": "renounceOwnership",
      "outputs": [],
      "payable": false,
      "stateMutability": "nonpayable",
      "type": "function"
    },
    {
      "constant": true,
      "inputs": [],
      "name": "sale_end",
      "outputs": [
        {
          "internalType": "uint256",
          "name": "",
          "type": "uint256"
        }
      ],
      "payable": false,
      "stateMutability": "view",
      "type": "function"
    },
    {
      "constant": true,
      "inputs": [],
      "name": "sale_start",
      "outputs": [
        {
          "internalType": "uint256",
          "name": "",
          "type": "uint256"
        }
      ],
      "payable": false,
      "stateMutability": "view",
      "type": "function"
    },
    {
      "constant": true,
      "inputs": [
        {
          "internalType": "uint256",
          "name": "",
          "type": "uint256"
        }
      ],
      "name": "tickets",
      "outputs": [
        {
          "internalType": "uint256",
          "name": "dna",
          "type": "uint256"
        }
      ],
      "payable": false,
      "stateMutability": "view",
      "type": "function"
    },
    {
      "constant": false,
      "inputs": [
        {
          "internalType": "address",
          "name": "newOwner",
          "type": "address"
        }
      ],
      "name": "transferOwnership",
      "outputs": [],
      "payable": false,
      "stateMutability": "nonpayable",
      "type": "function"
    },
    {
      "constant": false,
      "inputs": [
        {
          "internalType": "string",
          "name": "_name",
          "type": "string"
        },
        {
          "internalType": "uint256",
          "name": "numberOfTickets",
          "type": "uint256"
        }
      ],
      "name": "_buyTickets",
      "outputs": [],
      "payable": true,
      "stateMutability": "payable",
      "type": "function"
    }
  ],
  "bytecode": "0x608060408190526010600755662386f26fc10000600855600080546001600160a01b03191633178082556001600160a01b0316917f8be0079c531659141344cd1fd0a4f28419497f9722a3daafe3b4186f6b6457e0908290a361073a806100676000396000f3fe60806040526004361061009c5760003560e01c80638f32d59b116100645780638f32d59b1461014f578063a035b1fe14610178578063b9b994d71461018d578063bd75f871146101a2578063c486456c1461024a578063f2fde38b146102835761009c565b80632e5c0fe7146100a15780633cfa7e01146100c857806350b44712146100dd578063715018a6146101075780638da5cb5b1461011e575b600080fd5b3480156100ad57600080fd5b506100b66102b6565b60408051918252519081900360200190f35b3480156100d457600080fd5b506100b66102bc565b3480156100e957600080fd5b506100b66004803603602081101561010057600080fd5b50356102c2565b34801561011357600080fd5b5061011c6102e0565b005b34801561012a57600080fd5b5061013361033b565b604080516001600160a01b039092168252519081900360200190f35b34801561015b57600080fd5b5061016461034a565b604080519115158252519081900360200190f35b34801561018457600080fd5b506100b661035b565b34801561019957600080fd5b506100b6610361565b61011c600480360360408110156101b857600080fd5b8101906020810181356401000000008111156101d357600080fd5b8201836020820111156101e557600080fd5b8035906020019184600183028401116401000000008311171561020757600080fd5b91908080601f0160208091040260200160405190810160405280939291908181526020018383808284376000920191909152509295505091359250610367915050565b34801561025657600080fd5b5061025f6104e2565b6040518082600181111561026f57fe5b60ff16815260200191505060405180910390f35b34801561028f57600080fd5b5061011c600480360360208110156102a657600080fd5b50356001600160a01b03166104eb565b60035481565b60015481565b600981815481106102cf57fe5b600091825260209091200154905081565b6102e861034a565b6102f157600080fd5b600080546040516001600160a01b03909116907f8be0079c531659141344cd1fd0a4f28419497f9722a3daafe3b4186f6b6457e0908390a3600080546001600160a01b0319169055565b6000546001600160a01b031690565b6000546001600160a01b0316331490565b60055481565b60045481565b60045442106103bd576040805162461bcd60e51b815260206004820181905260248201527f536f72727920776520617265206e6f742073656c6c696e6720616e796d6f7265604482015290519081900360640190fd5b60006001541161040d576040805162461bcd60e51b815260206004820152601660248201527529b7b9393c903bb29030b9329039b7b6321037baba1760511b604482015290519081900360640190fd5b6000816001540312156104515760405162461bcd60e51b81526004018080602001828103825260288152602001806106de6028913960400191505060405180910390fd5b806005540234146104a0576040805162461bcd60e51b81526020600482015260146024820152734e6f6e2d6e65676f746961626c6520707269636560601b604482015290519081900360640190fd5b60005b818110156104dd5760006104b984600154610508565b6001805460001901905590506064810690036104d481610590565b506001016104a3565b505050565b60065460ff1681565b6104f361034a565b6104fc57600080fd5b61050581610659565b50565b60008083836040516020018083805190602001908083835b6020831061053f5780518252601f199092019160209182019101610520565b51815160209384036101000a60001901801990921691161790529201938452506040805180850381529382019052825192019190912060085490935091508290508161058757fe5b06949350505050565b60408051602080820183528382526009805460018181018355600092835293517f6e1540171b6c0c960b71a7020d9f60077f6af931a8bbf590da0223dacf75c7af820155808252600a835284822080546001600160a01b031916339081179091558252600b909252929092205461060c9163ffffffff6106c716565b336000908152600b602090815260409182902092909255805184815290517f44ff5a1d96b658d6e6d1368850d7b60d71011fd0d12f5ff7a448ee083f7a648e929181900390910190a15050565b6001600160a01b03811661066c57600080fd5b600080546040516001600160a01b03808516939216917f8be0079c531659141344cd1fd0a4f28419497f9722a3daafe3b4186f6b6457e091a3600080546001600160a01b0319166001600160a01b0392909216919091179055565b6000828201838110156106d657fe5b939250505056fe576520646f6e7420686176652074686174206d616e79207469636b65747320617661696c61626c65a265627a7a723158209e0fa3f75f680f49c60dddffc34fc8dff2ae6c97f85f72c145c9b9ac94f10eb464736f6c63430005100032",
  "source": "pragma solidity >=0.5.0 <0.6.0;\r\n\r\nimport \"./ownable.sol\";\r\nimport \"./safemath.sol\";\r\nimport \"./erc721.sol\";\r\n\r\ncontract TicketFactory is Ownable {\r\n\r\n    using SafeMath for uint256;\r\n    using SafeMath32 for uint32;\r\n    using SafeMath16 for uint16;\r\n\r\n    uint public availableTickets;\r\n    address internal venue_owner;\r\n    uint256 public sale_start;\r\n    uint256 public sale_end;\r\n    uint public price;\r\n\r\n    enum sale_state{\r\n        CANCELLED,STARTED\r\n    }\r\n    sale_state public STATE;\r\n\r\n    event NewTicket(uint dna);\r\n    event Transfer(address from, address to, uint256 tokenId);\r\n    event CanceledEvent(string message, uint256 time);\r\n\r\n    uint dnaDigits = 16;\r\n    uint dnaModulus = 10 ** dnaDigits;\r\n\r\n\r\n    struct Ticket {\r\n        uint dna;\r\n    }\r\n\r\n    Ticket[] public tickets;\r\n\r\n    mapping (uint => address) ticketToOwner;\r\n    mapping (address => uint) ownerTicketCount;\r\n\r\n    function _createTicket(uint _dna) internal {\r\n        uint id = tickets.push(Ticket(_dna)) - 1;\r\n        ticketToOwner[id] = msg.sender;\r\n        ownerTicketCount[msg.sender] = ownerTicketCount[msg.sender].add(1);\r\n        emit NewTicket(_dna);\r\n    }\r\n\r\n    function _generateRandomDna(string memory _str, uint number) private view returns (uint) {\r\n        uint rand = uint(keccak256(abi.encodePacked(_str, number)));\r\n        return rand % dnaModulus;\r\n    }\r\n\r\n    function _buyTickets(string memory _name, uint numberOfTickets) payable public {\r\n        require(now < sale_end, \"Sorry we are not selling anymore\");\r\n        require(availableTickets > 0, \"Sorry we are sold out.\");\r\n        require(int(availableTickets - numberOfTickets) >= 0, \"We dont have that many tickets available\");\r\n        require(msg.value == price*numberOfTickets, \"Non-negotiable price\");\r\n\r\n        for(uint i = 0; i < numberOfTickets; i++){\r\n            uint randDna = _generateRandomDna(_name, availableTickets);\r\n            availableTickets = availableTickets-1;\r\n            randDna = randDna - randDna % 100;\r\n            _createTicket(randDna);\r\n        }\r\n\r\n\r\n    }\r\n\r\n}\r\n",
  "sourcePath": "D:\\Personal\\College Files\\CS481\\TermP\\concert_ticketing_dApp\\contracts\\ticketfactory.sol",
  "compiler": {
    "name": "solc",
    "version": "0.5.16+commit.9c3226ce.Emscripten.clang"
  },
  "schemaVersion": "3.0.23",
  "updatedAt": "2020-05-01T00:05:10.484Z",
  "devdoc": {
    "methods": {
      "isOwner()": {
        "return": "true if `msg.sender` is the owner of the contract."
      },
      "owner()": {
        "return": "the address of the owner."
      },
      "renounceOwnership()": {
        "details": "Allows the current owner to relinquish control of the contract."
      },
      "transferOwnership(address)": {
        "details": "Allows the current owner to transfer control of the contract to a newOwner.",
        "params": {
          "newOwner": "The address to transfer ownership to."
        }
      }
    }
  },
  "userdoc": {
    "methods": {
      "renounceOwnership()": {
        "notice": "Renouncing to ownership will leave the contract without an owner. It will not be possible to call the functions with the `onlyOwner` modifier anymore."
      }
    }
  }
}